{
  "contractName": "DonationContract",
  "abi": [
    {
      "inputs": [],
      "stateMutability": "nonpayable",
      "type": "constructor"
    },
    {
      "anonymous": false,
      "inputs": [
        {
          "indexed": true,
          "internalType": "address",
          "name": "donor",
          "type": "address"
        },
        {
          "indexed": false,
          "internalType": "uint256",
          "name": "amount",
          "type": "uint256"
        },
        {
          "indexed": false,
          "internalType": "string",
          "name": "message",
          "type": "string"
        }
      ],
      "name": "DonationReceived",
      "type": "event"
    },
    {
      "anonymous": false,
      "inputs": [
        {
          "indexed": true,
          "internalType": "address",
          "name": "to",
          "type": "address"
        },
        {
          "indexed": false,
          "internalType": "uint256",
          "name": "amount",
          "type": "uint256"
        }
      ],
      "name": "FundsWithdrawn",
      "type": "event"
    },
    {
      "anonymous": false,
      "inputs": [
        {
          "indexed": true,
          "internalType": "address",
          "name": "sender",
          "type": "address"
        },
        {
          "indexed": true,
          "internalType": "address",
          "name": "recipient",
          "type": "address"
        },
        {
          "indexed": false,
          "internalType": "uint256",
          "name": "amount",
          "type": "uint256"
        },
        {
          "indexed": false,
          "internalType": "string",
          "name": "description",
          "type": "string"
        }
      ],
      "name": "TransactionExecuted",
      "type": "event"
    },
    {
      "inputs": [
        {
          "internalType": "uint256",
          "name": "",
          "type": "uint256"
        }
      ],
      "name": "donations",
      "outputs": [
        {
          "internalType": "address",
          "name": "donor",
          "type": "address"
        },
        {
          "internalType": "uint256",
          "name": "amount",
          "type": "uint256"
        },
        {
          "internalType": "uint256",
          "name": "timestamp",
          "type": "uint256"
        },
        {
          "internalType": "string",
          "name": "message",
          "type": "string"
        }
      ],
      "stateMutability": "view",
      "type": "function"
    },
    {
      "inputs": [
        {
          "internalType": "address",
          "name": "",
          "type": "address"
        }
      ],
      "name": "donorTotalAmount",
      "outputs": [
        {
          "internalType": "uint256",
          "name": "",
          "type": "uint256"
        }
      ],
      "stateMutability": "view",
      "type": "function"
    },
    {
      "inputs": [],
      "name": "owner",
      "outputs": [
        {
          "internalType": "address",
          "name": "",
          "type": "address"
        }
      ],
      "stateMutability": "view",
      "type": "function"
    },
    {
      "inputs": [
        {
          "internalType": "address",
          "name": "",
          "type": "address"
        }
      ],
      "name": "recipientTotalAmount",
      "outputs": [
        {
          "internalType": "uint256",
          "name": "",
          "type": "uint256"
        }
      ],
      "stateMutability": "view",
      "type": "function"
    },
    {
      "inputs": [
        {
          "internalType": "address",
          "name": "",
          "type": "address"
        }
      ],
      "name": "senderTotalAmount",
      "outputs": [
        {
          "internalType": "uint256",
          "name": "",
          "type": "uint256"
        }
      ],
      "stateMutability": "view",
      "type": "function"
    },
    {
      "inputs": [
        {
          "internalType": "uint256",
          "name": "",
          "type": "uint256"
        }
      ],
      "name": "transactions",
      "outputs": [
        {
          "internalType": "address",
          "name": "sender",
          "type": "address"
        },
        {
          "internalType": "address",
          "name": "recipient",
          "type": "address"
        },
        {
          "internalType": "uint256",
          "name": "amount",
          "type": "uint256"
        },
        {
          "internalType": "uint256",
          "name": "timestamp",
          "type": "uint256"
        },
        {
          "internalType": "string",
          "name": "description",
          "type": "string"
        }
      ],
      "stateMutability": "view",
      "type": "function"
    },
    {
      "stateMutability": "payable",
      "type": "receive"
    },
    {
      "inputs": [
        {
          "internalType": "string",
          "name": "message",
          "type": "string"
        }
      ],
      "name": "donate",
      "outputs": [],
      "stateMutability": "payable",
      "type": "function"
    },
    {
      "inputs": [
        {
          "internalType": "address payable",
          "name": "recipient",
          "type": "address"
        },
        {
          "internalType": "string",
          "name": "description",
          "type": "string"
        }
      ],
      "name": "executeTransaction",
      "outputs": [],
      "stateMutability": "payable",
      "type": "function"
    },
    {
      "inputs": [
        {
          "internalType": "address payable",
          "name": "to",
          "type": "address"
        },
        {
          "internalType": "uint256",
          "name": "amount",
          "type": "uint256"
        }
      ],
      "name": "withdraw",
      "outputs": [],
      "stateMutability": "nonpayable",
      "type": "function"
    },
    {
      "inputs": [],
      "name": "getDonationCount",
      "outputs": [
        {
          "internalType": "uint256",
          "name": "",
          "type": "uint256"
        }
      ],
      "stateMutability": "view",
      "type": "function"
    },
    {
      "inputs": [],
      "name": "getTransactionCount",
      "outputs": [
        {
          "internalType": "uint256",
          "name": "",
          "type": "uint256"
        }
      ],
      "stateMutability": "view",
      "type": "function"
    },
    {
      "inputs": [
        {
          "internalType": "uint256",
          "name": "index",
          "type": "uint256"
        }
      ],
      "name": "getDonationDetails",
      "outputs": [
        {
          "internalType": "address",
          "name": "donor",
          "type": "address"
        },
        {
          "internalType": "uint256",
          "name": "amount",
          "type": "uint256"
        },
        {
          "internalType": "uint256",
          "name": "timestamp",
          "type": "uint256"
        },
        {
          "internalType": "string",
          "name": "message",
          "type": "string"
        }
      ],
      "stateMutability": "view",
      "type": "function"
    },
    {
      "inputs": [
        {
          "internalType": "uint256",
          "name": "index",
          "type": "uint256"
        }
      ],
      "name": "getTransactionDetails",
      "outputs": [
        {
          "internalType": "address",
          "name": "sender",
          "type": "address"
        },
        {
          "internalType": "address",
          "name": "recipient",
          "type": "address"
        },
        {
          "internalType": "uint256",
          "name": "amount",
          "type": "uint256"
        },
        {
          "internalType": "uint256",
          "name": "timestamp",
          "type": "uint256"
        },
        {
          "internalType": "string",
          "name": "description",
          "type": "string"
        }
      ],
      "stateMutability": "view",
      "type": "function"
    },
    {
      "inputs": [],
      "name": "getContractBalance",
      "outputs": [
        {
          "internalType": "uint256",
          "name": "",
          "type": "uint256"
        }
      ],
      "stateMutability": "view",
      "type": "function"
    },
    {
      "inputs": [
        {
          "internalType": "address",
          "name": "donor",
          "type": "address"
        }
      ],
      "name": "getDonationsByDonor",
      "outputs": [
        {
          "internalType": "uint256[]",
          "name": "",
          "type": "uint256[]"
        }
      ],
      "stateMutability": "view",
      "type": "function"
    },
    {
      "inputs": [
        {
          "internalType": "address",
          "name": "sender",
          "type": "address"
        }
      ],
      "name": "getTransactionsBySender",
      "outputs": [
        {
          "internalType": "uint256[]",
          "name": "",
          "type": "uint256[]"
        }
      ],
      "stateMutability": "view",
      "type": "function"
    },
    {
      "inputs": [
        {
          "internalType": "address",
          "name": "recipient",
          "type": "address"
        }
      ],
      "name": "getTransactionsByRecipient",
      "outputs": [
        {
          "internalType": "uint256[]",
          "name": "",
          "type": "uint256[]"
        }
      ],
      "stateMutability": "view",
      "type": "function"
    },
    {
      "inputs": [
        {
          "internalType": "address",
          "name": "newOwner",
          "type": "address"
        }
      ],
      "name": "transferOwnership",
      "outputs": [],
      "stateMutability": "nonpayable",
      "type": "function"
    },
    {
      "inputs": [
        {
          "internalType": "uint256",
          "name": "startIndex",
          "type": "uint256"
        },
        {
          "internalType": "uint256",
          "name": "count",
          "type": "uint256"
        }
      ],
      "name": "getDonationBatch",
      "outputs": [
        {
          "internalType": "address[]",
          "name": "donors",
          "type": "address[]"
        },
        {
          "internalType": "uint256[]",
          "name": "amounts",
          "type": "uint256[]"
        },
        {
          "internalType": "uint256[]",
          "name": "timestamps",
          "type": "uint256[]"
        },
        {
          "internalType": "string[]",
          "name": "messages",
          "type": "string[]"
        }
      ],
      "stateMutability": "view",
      "type": "function"
    },
    {
      "inputs": [
        {
          "internalType": "uint256",
          "name": "startIndex",
          "type": "uint256"
        },
        {
          "internalType": "uint256",
          "name": "count",
          "type": "uint256"
        }
      ],
      "name": "getTransactionBatch",
      "outputs": [
        {
          "internalType": "address[]",
          "name": "senders",
          "type": "address[]"
        },
        {
          "internalType": "address[]",
          "name": "recipients",
          "type": "address[]"
        },
        {
          "internalType": "uint256[]",
          "name": "amounts",
          "type": "uint256[]"
        },
        {
          "internalType": "uint256[]",
          "name": "timestamps",
          "type": "uint256[]"
        },
        {
          "internalType": "string[]",
          "name": "descriptions",
          "type": "string[]"
        }
      ],
      "stateMutability": "view",
      "type": "function"
    },
    {
      "inputs": [
        {
          "internalType": "uint256",
          "name": "charityId",
          "type": "uint256"
        },
        {
          "internalType": "string",
          "name": "message",
          "type": "string"
        }
      ],
      "name": "donateToCharity",
      "outputs": [],
      "stateMutability": "payable",
      "type": "function"
    }
  ],
  "bytecode": "0x608060405234801561000f575f80fd5b505f80546001600160a01b031916331790556123da8061002e5f395ff3fe608060405260043610610129575f3560e01c806391f0ac51116100a8578063e477873e1161006d578063e477873e146104d9578063e55a62a8146104ec578063eb564d3514610500578063f2fde38b1461052f578063f3fef3a31461054e578063f8626af81461056d575f80fd5b806391f0ac51146104385780639ace38c214610467578063b5aebc8014610486578063ca0203701461049b578063cca5f3e2146104ae575f80fd5b80633d0d3086116100ee5780633d0d3086146103875780636f9fb98a146103a657806378fcbfea146103b85780637f9a4b32146103e35780638da5cb5b14610402575f80fd5b8063027ba7c7146102a95780630a190b55146102e75780630fa683d3146103175780632e7700f01461034757806333b210c01461035b575f80fd5b366102a557604080516080810182523381523460208083019182524283850190815284519182019094525f80825260608401918252600180548082018255915283517fb10e2d527612073b26eecdfd717e6a320cf44b4afac2b0732d9fcbe2b7fa0cf6600490920291820180546001600160a01b0319166001600160a01b0390921691909117815592517fb10e2d527612073b26eecdfd717e6a320cf44b4afac2b0732d9fcbe2b7fa0cf782015593517fb10e2d527612073b26eecdfd717e6a320cf44b4afac2b0732d9fcbe2b7fa0cf885015551919290917fb10e2d527612073b26eecdfd717e6a320cf44b4afac2b0732d9fcbe2b7fa0cf9909101906102319082611d1a565b5050335f9081526003602052604081208054349350909190610254908490611de9565b909155505060405133907ffa5658cbb5d60363acba0d281bddcf21cc9e7ea6053267531b4cdc36d5df7a8a9061029b903481526040602082018190525f9082015260600190565b60405180910390a2005b5f80fd5b3480156102b4575f80fd5b506102d46102c3366004611e19565b60056020525f908152604090205481565b6040519081526020015b60405180910390f35b3480156102f2575f80fd5b50610306610301366004611e3b565b61058c565b6040516102de959493929190611f6b565b348015610322575f80fd5b50610336610331366004611fd7565b6108d4565b6040516102de959493929190611fee565b348015610352575f80fd5b506002546102d4565b348015610366575f80fd5b5061037a610375366004611e19565b610a2e565b6040516102de9190612032565b348015610392575f80fd5b5061037a6103a1366004611e19565b610b6e565b3480156103b1575f80fd5b50476102d4565b3480156103c3575f80fd5b506102d46103d2366004611e19565b60036020525f908152604090205481565b3480156103ee575f80fd5b5061037a6103fd366004611e19565b610ca4565b34801561040d575f80fd5b505f54610420906001600160a01b031681565b6040516001600160a01b0390911681526020016102de565b348015610443575f80fd5b50610457610452366004611e3b565b610de0565b6040516102de9493929190612044565b348015610472575f80fd5b50610336610481366004611fd7565b6110b0565b610499610494366004612118565b611185565b005b6104996104a9366004612151565b6111ea565b3480156104b9575f80fd5b506102d46104c8366004611e19565b60046020525f908152604090205481565b6104996104e736600461219d565b61150c565b3480156104f7575f80fd5b506001546102d4565b34801561050b575f80fd5b5061051f61051a366004611fd7565b6116b0565b6040516102de94939291906121ca565b34801561053a575f80fd5b50610499610549366004611e19565b6117e9565b348015610559575f80fd5b50610499610568366004612200565b611895565b348015610578575f80fd5b5061051f610587366004611fd7565b611a3a565b6060808080805f61059d8789611de9565b6002549091508111156105af57506002545b5f6105ba898361222a565b9050806001600160401b038111156105d4576105d4611c80565b6040519080825280602002602001820160405280156105fd578160200160208202803683370190505b509650806001600160401b0381111561061857610618611c80565b604051908082528060200260200182016040528015610641578160200160208202803683370190505b509550806001600160401b0381111561065c5761065c611c80565b604051908082528060200260200182016040528015610685578160200160208202803683370190505b509450806001600160401b038111156106a0576106a0611c80565b6040519080825280602002602001820160405280156106c9578160200160208202803683370190505b509350806001600160401b038111156106e4576106e4611c80565b60405190808252806020026020018201604052801561071757816020015b60608152602001906001900390816107025790505b5092505f5b818110156108c7575f6002610731838d611de9565b815481106107415761074161223d565b5f918252602090912060059091020180548a519192506001600160a01b0316908a90849081106107735761077361223d565b6001600160a01b039283166020918202929092010152600182015489519116908990849081106107a5576107a561223d565b60200260200101906001600160a01b031690816001600160a01b03168152505080600201548783815181106107dc576107dc61223d565b60200260200101818152505080600301548683815181106107ff576107ff61223d565b60200260200101818152505080600401805461081a90611c94565b80601f016020809104026020016040519081016040528092919081815260200182805461084690611c94565b80156108915780601f1061086857610100808354040283529160200191610891565b820191905f5260205f20905b81548152906001019060200180831161087457829003601f168201915b50505050508583815181106108a8576108a861223d565b60200260200101819052505080806108bf90612251565b91505061071c565b5050509295509295909350565b5f805f80606060028054905086106109335760405162461bcd60e51b815260206004820152601f60248201527f5472616e73616374696f6e20696e646578206f7574206f6620626f756e64730060448201526064015b60405180910390fd5b5f600287815481106109475761094761223d565b905f5260205f2090600502019050805f015f9054906101000a90046001600160a01b0316816001015f9054906101000a90046001600160a01b0316826002015483600301548460040180805461099c90611c94565b80601f01602080910402602001604051908101604052809291908181526020018280546109c890611c94565b8015610a135780601f106109ea57610100808354040283529160200191610a13565b820191905f5260205f20905b8154815290600101906020018083116109f657829003601f168201915b50505050509050955095509550955095505091939590929450565b60605f805b600254811015610a9857836001600160a01b031660028281548110610a5a57610a5a61223d565b5f9182526020909120600590910201546001600160a01b031603610a865781610a8281612251565b9250505b80610a9081612251565b915050610a33565b505f816001600160401b03811115610ab257610ab2611c80565b604051908082528060200260200182016040528015610adb578160200160208202803683370190505b5090505f805b600254811015610b6457856001600160a01b031660028281548110610b0857610b0861223d565b5f9182526020909120600590910201546001600160a01b031603610b525780838381518110610b3957610b3961223d565b602090810291909101015281610b4e81612251565b9250505b80610b5c81612251565b915050610ae1565b5090949350505050565b60605f805b600154811015610bd857836001600160a01b031660018281548110610b9a57610b9a61223d565b5f9182526020909120600490910201546001600160a01b031603610bc65781610bc281612251565b9250505b80610bd081612251565b915050610b73565b505f816001600160401b03811115610bf257610bf2611c80565b604051908082528060200260200182016040528015610c1b578160200160208202803683370190505b5090505f805b600154811015610b6457856001600160a01b031660018281548110610c4857610c4861223d565b5f9182526020909120600490910201546001600160a01b031603610c925780838381518110610c7957610c7961223d565b602090810291909101015281610c8e81612251565b9250505b80610c9c81612251565b915050610c21565b60605f805b600254811015610d1157836001600160a01b031660028281548110610cd057610cd061223d565b5f9182526020909120600160059092020101546001600160a01b031603610cff5781610cfb81612251565b9250505b80610d0981612251565b915050610ca9565b505f816001600160401b03811115610d2b57610d2b611c80565b604051908082528060200260200182016040528015610d54578160200160208202803683370190505b5090505f805b600254811015610b6457856001600160a01b031660028281548110610d8157610d8161223d565b5f9182526020909120600160059092020101546001600160a01b031603610dce5780838381518110610db557610db561223d565b602090810291909101015281610dca81612251565b9250505b80610dd881612251565b915050610d5a565b60608080805f610df08688611de9565b600154909150811115610e0257506001545b5f610e0d888361222a565b9050806001600160401b03811115610e2757610e27611c80565b604051908082528060200260200182016040528015610e50578160200160208202803683370190505b509550806001600160401b03811115610e6b57610e6b611c80565b604051908082528060200260200182016040528015610e94578160200160208202803683370190505b509450806001600160401b03811115610eaf57610eaf611c80565b604051908082528060200260200182016040528015610ed8578160200160208202803683370190505b509350806001600160401b03811115610ef357610ef3611c80565b604051908082528060200260200182016040528015610f2657816020015b6060815260200190600190039081610f115790505b5092505f5b818110156110a4575f6001610f40838c611de9565b81548110610f5057610f5061223d565b5f9182526020909120600490910201805489519192506001600160a01b031690899084908110610f8257610f8261223d565b60200260200101906001600160a01b031690816001600160a01b0316815250508060010154878381518110610fb957610fb961223d565b6020026020010181815250508060020154868381518110610fdc57610fdc61223d565b602002602001018181525050806003018054610ff790611c94565b80601f016020809104026020016040519081016040528092919081815260200182805461102390611c94565b801561106e5780601f106110455761010080835404028352916020019161106e565b820191905f5260205f20905b81548152906001019060200180831161105157829003601f168201915b50505050508583815181106110855761108561223d565b602002602001018190525050808061109c90612251565b915050610f2b565b50505092959194509250565b600281815481106110bf575f80fd5b5f918252602090912060059091020180546001820154600283015460038401546004850180546001600160a01b03958616975093909416949193909261110490611c94565b80601f016020809104026020016040519081016040528092919081815260200182805461113090611c94565b801561117b5780601f106111525761010080835404028352916020019161117b565b820191905f5260205f20905b81548152906001019060200180831161115e57829003601f168201915b5050505050905085565b5f34116111a45760405162461bcd60e51b815260040161092a90612269565b336001600160a01b03167ffa5658cbb5d60363acba0d281bddcf21cc9e7ea6053267531b4cdc36d5df7a8a34836040516111df9291906122af565b60405180910390a250565b5f341161124b5760405162461bcd60e51b815260206004820152602960248201527f5472616e73616374696f6e20616d6f756e74206d75737420626520677265617460448201526806572207468616e20360bc1b606482015260840161092a565b6001600160a01b0382166112a15760405162461bcd60e51b815260206004820152601b60248201527f43616e6e6f742073656e6420746f207a65726f20616464726573730000000000604482015260640161092a565b6040805160a0810182523381526001600160a01b038481166020830190815234938301938452426060840190815260808401868152600280546001810182555f91909152855160059091027f405787fa12a823e0f2b7631cc41b3ba8828b3321ca811111fa75cd3aa3bb5ace810180549287166001600160a01b031993841617815594517f405787fa12a823e0f2b7631cc41b3ba8828b3321ca811111fa75cd3aa3bb5acf820180549190971692169190911790945594517f405787fa12a823e0f2b7631cc41b3ba8828b3321ca811111fa75cd3aa3bb5ad0840155517f405787fa12a823e0f2b7631cc41b3ba8828b3321ca811111fa75cd3aa3bb5ad183015592519192917f405787fa12a823e0f2b7631cc41b3ba8828b3321ca811111fa75cd3aa3bb5ad2909101906113d69082611d1a565b5050335f90815260046020526040812080543493509091906113f9908490611de9565b90915550506001600160a01b0382165f9081526005602052604081208054349290611425908490611de9565b90915550506040515f906001600160a01b0384169034908381818185875af1925050503d805f8114611472576040519150601f19603f3d011682016040523d82523d5f602084013e611477565b606091505b50509050806114ba5760405162461bcd60e51b815260206004820152600f60248201526e151c985b9cd9995c8819985a5b1959608a1b604482015260640161092a565b826001600160a01b0316336001600160a01b03167f1e30b3e1ff17501da9bf26e90376a6bb07b7649149aee6efb47ebd9ae04f24b934856040516114ff9291906122af565b60405180910390a3505050565b5f341161152b5760405162461bcd60e51b815260040161092a90612269565b5f61153583611b08565b826040516020016115479291906122c7565b60408051808303601f19018152608083018252338352346020840190815242928401928352606084018281526001805480820182555f9190915285517fb10e2d527612073b26eecdfd717e6a320cf44b4afac2b0732d9fcbe2b7fa0cf6600490920291820180546001600160a01b0319166001600160a01b0390921691909117815592517fb10e2d527612073b26eecdfd717e6a320cf44b4afac2b0732d9fcbe2b7fa0cf782015593517fb10e2d527612073b26eecdfd717e6a320cf44b4afac2b0732d9fcbe2b7fa0cf885015551919450917fb10e2d527612073b26eecdfd717e6a320cf44b4afac2b0732d9fcbe2b7fa0cf901906116479082611d1a565b5050335f908152600360205260408120805434935090919061166a908490611de9565b909155505060405133907ffa5658cbb5d60363acba0d281bddcf21cc9e7ea6053267531b4cdc36d5df7a8a906116a390349085906122af565b60405180910390a2505050565b5f805f606060018054905085106117095760405162461bcd60e51b815260206004820152601c60248201527f446f6e6174696f6e20696e646578206f7574206f6620626f756e647300000000604482015260640161092a565b5f6001868154811061171d5761171d61223d565b905f5260205f2090600402019050805f015f9054906101000a90046001600160a01b0316816001015482600201548360030180805461175b90611c94565b80601f016020809104026020016040519081016040528092919081815260200182805461178790611c94565b80156117d25780601f106117a9576101008083540402835291602001916117d2565b820191905f5260205f20905b8154815290600101906020018083116117b557829003601f168201915b505050505090509450945094509450509193509193565b5f546001600160a01b031633146118125760405162461bcd60e51b815260040161092a90612325565b6001600160a01b0381166118745760405162461bcd60e51b8152602060048201526024808201527f4e6577206f776e65722063616e6e6f7420626520746865207a65726f206164646044820152637265737360e01b606482015260840161092a565b5f80546001600160a01b0319166001600160a01b0392909216919091179055565b5f546001600160a01b031633146118be5760405162461bcd60e51b815260040161092a90612325565b5f811161191e5760405162461bcd60e51b815260206004820152602860248201527f5769746864726177616c20616d6f756e74206d75737420626520677265617465604482015267072207468616e20360c41b606482015260840161092a565b4781111561196e5760405162461bcd60e51b815260206004820152601d60248201527f496e73756666696369656e7420636f6e74726163742062616c616e6365000000604482015260640161092a565b5f826001600160a01b0316826040515f6040518083038185875af1925050503d805f81146119b7576040519150601f19603f3d011682016040523d82523d5f602084013e6119bc565b606091505b50509050806119ff5760405162461bcd60e51b815260206004820152600f60248201526e151c985b9cd9995c8819985a5b1959608a1b604482015260640161092a565b826001600160a01b03167feaff4b37086828766ad3268786972c0cd24259d4c87a80f9d3963a3c3d999b0d836040516116a391815260200190565b60018181548110611a49575f80fd5b5f91825260209091206004909102018054600182015460028301546003840180546001600160a01b03909416955091939092909190611a8790611c94565b80601f0160208091040260200160405190810160405280929190818152602001828054611ab390611c94565b8015611afe5780601f10611ad557610100808354040283529160200191611afe565b820191905f5260205f20905b815481529060010190602001808311611ae157829003601f168201915b5050505050905084565b6060815f03611b2e5750506040805180820190915260018152600360fc1b602082015290565b60408051606480825260a082019092525f90826020820181803683370190505090505f5b8415611bba575f611b64600a8761237e565b9050611b71600a87612391565b9550611b7e816030611de9565b60f81b8383611b8c81612251565b945081518110611b9e57611b9e61223d565b60200101906001600160f81b03191690815f1a90535050611b52565b5f816001600160401b03811115611bd357611bd3611c80565b6040519080825280601f01601f191660200182016040528015611bfd576020820181803683370190505b5090505f5b82811015611c76578381611c1760018661222a565b611c21919061222a565b81518110611c3157611c3161223d565b602001015160f81c60f81b828281518110611c4e57611c4e61223d565b60200101906001600160f81b03191690815f1a90535080611c6e81612251565b915050611c02565b5095945050505050565b634e487b7160e01b5f52604160045260245ffd5b600181811c90821680611ca857607f821691505b602082108103611cc657634e487b7160e01b5f52602260045260245ffd5b50919050565b601f821115611d15575f81815260208120601f850160051c81016020861015611cf25750805b601f850160051c820191505b81811015611d1157828155600101611cfe565b5050505b505050565b81516001600160401b03811115611d3357611d33611c80565b611d4781611d418454611c94565b84611ccc565b602080601f831160018114611d7a575f8415611d635750858301515b5f19600386901b1c1916600185901b178555611d11565b5f85815260208120601f198616915b82811015611da857888601518255948401946001909101908401611d89565b5085821015611dc557878501515f19600388901b60f8161c191681555b5050505050600190811b01905550565b634e487b7160e01b5f52601160045260245ffd5b80820180821115611dfc57611dfc611dd5565b92915050565b6001600160a01b0381168114611e16575f80fd5b50565b5f60208284031215611e29575f80fd5b8135611e3481611e02565b9392505050565b5f8060408385031215611e4c575f80fd5b50508035926020909101359150565b5f8151808452602080850194508084015f5b83811015611e925781516001600160a01b031687529582019590820190600101611e6d565b509495945050505050565b5f8151808452602080850194508084015f5b83811015611e9257815187529582019590820190600101611eaf565b5f5b83811015611ee5578181015183820152602001611ecd565b50505f910152565b5f8151808452611f04816020860160208601611ecb565b601f01601f19169290920160200192915050565b5f81518084526020808501808196508360051b810191508286015f5b85811015611f5e578284038952611f4c848351611eed565b98850198935090840190600101611f34565b5091979650505050505050565b60a081525f611f7d60a0830188611e5b565b8281036020840152611f8f8188611e5b565b90508281036040840152611fa38187611e9d565b90508281036060840152611fb78186611e9d565b90508281036080840152611fcb8185611f18565b98975050505050505050565b5f60208284031215611fe7575f80fd5b5035919050565b6001600160a01b03868116825285166020820152604081018490526060810183905260a0608082018190525f9061202790830184611eed565b979650505050505050565b602081525f611e346020830184611e9d565b608081525f6120566080830187611e5b565b82810360208401526120688187611e9d565b9050828103604084015261207c8186611e9d565b905082810360608401526120278185611f18565b5f82601f83011261209f575f80fd5b81356001600160401b03808211156120b9576120b9611c80565b604051601f8301601f19908116603f011681019082821181831017156120e1576120e1611c80565b816040528381528660208588010111156120f9575f80fd5b836020870160208301375f602085830101528094505050505092915050565b5f60208284031215612128575f80fd5b81356001600160401b0381111561213d575f80fd5b61214984828501612090565b949350505050565b5f8060408385031215612162575f80fd5b823561216d81611e02565b915060208301356001600160401b03811115612187575f80fd5b61219385828601612090565b9150509250929050565b5f80604083850312156121ae575f80fd5b8235915060208301356001600160401b03811115612187575f80fd5b60018060a01b0385168152836020820152826040820152608060608201525f6121f66080830184611eed565b9695505050505050565b5f8060408385031215612211575f80fd5b823561221c81611e02565b946020939093013593505050565b81810381811115611dfc57611dfc611dd5565b634e487b7160e01b5f52603260045260245ffd5b5f6001820161226257612262611dd5565b5060010190565b60208082526026908201527f446f6e6174696f6e20616d6f756e74206d75737420626520677265617465722060408201526507468616e20360d41b606082015260800190565b828152604060208201525f6121496040830184611eed565b6b021b430b934ba3c9024a21d160a51b81525f83516122ed81600c850160208801611ecb565b6b0103e1026b2b9b9b0b3b29d160a51b600c918401918201528351612319816018840160208801611ecb565b01601801949350505050565b60208082526025908201527f4f6e6c7920746865206f776e65722063616e2063616c6c20746869732066756e60408201526431ba34b7b760d91b606082015260800190565b634e487b7160e01b5f52601260045260245ffd5b5f8261238c5761238c61236a565b500690565b5f8261239f5761239f61236a565b50049056fea2646970667358221220c2c83d1184d697ded0a44029fa02036d61dbeac205a6a408c528717c79235ef264736f6c63430008150033",
  "immutableReferences": {},
  "source": "// SPDX-License-Identifier: MIT\r\npragma solidity ^0.8.0;\r\n\r\n/**\r\n * @title Donation Contract\r\n * @dev A contract that allows users to make donations and transactions\r\n */\r\ncontract DonationContract {\r\n    address public owner;\r\n    \r\n    // Structure to store donation information\r\n    struct Donation {\r\n        address donor;\r\n        uint256 amount;\r\n        uint256 timestamp;\r\n        string message;\r\n    }\r\n    \r\n    // Structure to store transaction information\r\n    struct Transaction {\r\n        address sender;\r\n        address recipient;\r\n        uint256 amount;\r\n        uint256 timestamp;\r\n        string description;\r\n    }\r\n    \r\n    // Array to store all donations\r\n    Donation[] public donations;\r\n    \r\n    // Array to store all transactions\r\n    Transaction[] public transactions;\r\n    \r\n    // Mapping to track total donation amount by donor\r\n    mapping(address => uint256) public donorTotalAmount;\r\n    \r\n    // Mapping to track total transactions by address (sent)\r\n    mapping(address => uint256) public senderTotalAmount;\r\n    \r\n    // Mapping to track total transactions by address (received)\r\n    mapping(address => uint256) public recipientTotalAmount;\r\n    \r\n    // Events\r\n    event DonationReceived(address indexed donor, uint256 amount, string message);\r\n    event TransactionExecuted(address indexed sender, address indexed recipient, uint256 amount, string description);\r\n    event FundsWithdrawn(address indexed to, uint256 amount);\r\n    \r\n    // Modifier to restrict access to owner\r\n    modifier onlyOwner() {\r\n        require(msg.sender == owner, \"Only the owner can call this function\");\r\n        _;\r\n    }\r\n    \r\n    /**\r\n     * @dev Constructor sets the owner to the deployer of the contract\r\n     */\r\n    constructor() {\r\n        owner = msg.sender;\r\n    }\r\n    \r\n    /**\r\n     * @dev Make a donation with an optional message\r\n     * @param message A message from the donor\r\n     */\r\n    function donate(string memory message) external payable {\r\n        require(msg.value > 0, \"Donation amount must be greater than 0\");\r\n        // Just emit an event for now\r\n        emit DonationReceived(msg.sender, msg.value, message);\r\n    }\r\n    \r\n    /**\r\n     * @dev Execute a transaction to send funds to a recipient\r\n     * @param recipient The address of the recipient\r\n     * @param description A description of the transaction\r\n     */\r\n    function executeTransaction(address payable recipient, string memory description) external payable {\r\n        require(msg.value > 0, \"Transaction amount must be greater than 0\");\r\n        require(recipient != address(0), \"Cannot send to zero address\");\r\n        \r\n        // Record the transaction\r\n        transactions.push(Transaction({\r\n            sender: msg.sender,\r\n            recipient: recipient,\r\n            amount: msg.value,\r\n            timestamp: block.timestamp,\r\n            description: description\r\n        }));\r\n        \r\n        // Update sender's and recipient's totals\r\n        senderTotalAmount[msg.sender] += msg.value;\r\n        recipientTotalAmount[recipient] += msg.value;\r\n        \r\n        // Transfer funds to recipient\r\n        (bool success, ) = recipient.call{value: msg.value}(\"\");\r\n        require(success, \"Transfer failed\");\r\n        \r\n        // Emit event\r\n        emit TransactionExecuted(msg.sender, recipient, msg.value, description);\r\n    }\r\n    \r\n    /**\r\n     * @dev Withdraw funds from the contract (only owner)\r\n     * @param to The address to send the funds to\r\n     * @param amount The amount to withdraw\r\n     */\r\n    function withdraw(address payable to, uint256 amount) external onlyOwner {\r\n        require(amount > 0, \"Withdrawal amount must be greater than 0\");\r\n        require(amount <= address(this).balance, \"Insufficient contract balance\");\r\n        \r\n        // Transfer funds\r\n        (bool success, ) = to.call{value: amount}(\"\");\r\n        require(success, \"Transfer failed\");\r\n        \r\n        // Emit event\r\n        emit FundsWithdrawn(to, amount);\r\n    }\r\n    \r\n    /**\r\n     * @dev Get the total number of donations\r\n     * @return The number of donations\r\n     */\r\n    function getDonationCount() external view returns (uint256) {\r\n        return donations.length;\r\n    }\r\n    \r\n    /**\r\n     * @dev Get the total number of transactions\r\n     * @return The number of transactions\r\n     */\r\n    function getTransactionCount() external view returns (uint256) {\r\n        return transactions.length;\r\n    }\r\n    \r\n    /**\r\n     * @dev Get donation details by index\r\n     * @param index The index of the donation\r\n     * @return donor The address of the donor\r\n     * @return amount The donation amount\r\n     * @return timestamp The timestamp of the donation\r\n     * @return message The donation message\r\n     */\r\n    function getDonationDetails(uint256 index) external view returns (\r\n        address donor,\r\n        uint256 amount,\r\n        uint256 timestamp,\r\n        string memory message\r\n    ) {\r\n        require(index < donations.length, \"Donation index out of bounds\");\r\n        Donation storage donation = donations[index];\r\n        return (donation.donor, donation.amount, donation.timestamp, donation.message);\r\n    }\r\n    \r\n    /**\r\n     * @dev Get transaction details by index\r\n     * @param index The index of the transaction\r\n     * @return sender The address of the sender\r\n     * @return recipient The address of the recipient\r\n     * @return amount The transaction amount\r\n     * @return timestamp The timestamp of the transaction\r\n     * @return description The transaction description\r\n     */\r\n    function getTransactionDetails(uint256 index) external view returns (\r\n        address sender,\r\n        address recipient,\r\n        uint256 amount,\r\n        uint256 timestamp,\r\n        string memory description\r\n    ) {\r\n        require(index < transactions.length, \"Transaction index out of bounds\");\r\n        Transaction storage txn = transactions[index];\r\n        return (txn.sender, txn.recipient, txn.amount, txn.timestamp, txn.description);\r\n    }\r\n    \r\n    /**\r\n     * @dev Get the contract balance\r\n     * @return The balance of the contract\r\n     */\r\n    function getContractBalance() external view returns (uint256) {\r\n        return address(this).balance;\r\n    }\r\n    \r\n    /**\r\n     * @dev Get all donations by a specific donor\r\n     * @param donor The address of the donor\r\n     * @return indices The indices of the donations made by the donor\r\n     */\r\n    function getDonationsByDonor(address donor) external view returns (uint256[] memory) {\r\n        uint256 count = 0;\r\n        \r\n        // Count donations by this donor\r\n        for (uint256 i = 0; i < donations.length; i++) {\r\n            if (donations[i].donor == donor) {\r\n                count++;\r\n            }\r\n        }\r\n        \r\n        // Create array of indices\r\n        uint256[] memory indices = new uint256[](count);\r\n        uint256 currentIndex = 0;\r\n        \r\n        // Fill array with indices\r\n        for (uint256 i = 0; i < donations.length; i++) {\r\n            if (donations[i].donor == donor) {\r\n                indices[currentIndex] = i;\r\n                currentIndex++;\r\n            }\r\n        }\r\n        \r\n        return indices;\r\n    }\r\n    \r\n    /**\r\n     * @dev Get all transactions by a specific sender\r\n     * @param sender The address of the sender\r\n     * @return indices The indices of the transactions made by the sender\r\n     */\r\n    function getTransactionsBySender(address sender) external view returns (uint256[] memory) {\r\n        uint256 count = 0;\r\n        \r\n        // Count transactions by this sender\r\n        for (uint256 i = 0; i < transactions.length; i++) {\r\n            if (transactions[i].sender == sender) {\r\n                count++;\r\n            }\r\n        }\r\n        \r\n        // Create array of indices\r\n        uint256[] memory indices = new uint256[](count);\r\n        uint256 currentIndex = 0;\r\n        \r\n        // Fill array with indices\r\n        for (uint256 i = 0; i < transactions.length; i++) {\r\n            if (transactions[i].sender == sender) {\r\n                indices[currentIndex] = i;\r\n                currentIndex++;\r\n            }\r\n        }\r\n        \r\n        return indices;\r\n    }\r\n    \r\n    /**\r\n     * @dev Get all transactions to a specific recipient\r\n     * @param recipient The address of the recipient\r\n     * @return indices The indices of the transactions to the recipient\r\n     */\r\n    function getTransactionsByRecipient(address recipient) external view returns (uint256[] memory) {\r\n        uint256 count = 0;\r\n        \r\n        // Count transactions to this recipient\r\n        for (uint256 i = 0; i < transactions.length; i++) {\r\n            if (transactions[i].recipient == recipient) {\r\n                count++;\r\n            }\r\n        }\r\n        \r\n        // Create array of indices\r\n        uint256[] memory indices = new uint256[](count);\r\n        uint256 currentIndex = 0;\r\n        \r\n        // Fill array with indices\r\n        for (uint256 i = 0; i < transactions.length; i++) {\r\n            if (transactions[i].recipient == recipient) {\r\n                indices[currentIndex] = i;\r\n                currentIndex++;\r\n            }\r\n        }\r\n        \r\n        return indices;\r\n    }\r\n    \r\n    /**\r\n     * @dev Change the owner of the contract\r\n     * @param newOwner The address of the new owner\r\n     */\r\n    function transferOwnership(address newOwner) external onlyOwner {\r\n        require(newOwner != address(0), \"New owner cannot be the zero address\");\r\n        owner = newOwner;\r\n    }\r\n    \r\n    // Fallback function to accept ETH\r\n    receive() external payable {\r\n        // Record as a donation with empty message\r\n        donations.push(Donation({\r\n            donor: msg.sender,\r\n            amount: msg.value,\r\n            timestamp: block.timestamp,\r\n            message: \"\"\r\n        }));\r\n        \r\n        // Update donor's total\r\n        donorTotalAmount[msg.sender] += msg.value;\r\n        \r\n        // Emit event\r\n        emit DonationReceived(msg.sender, msg.value, \"\");\r\n    }\r\n    \r\n    /**\r\n     * @dev Get donations within a specific range\r\n     * @param startIndex The starting index\r\n     * @param count The number of donations to retrieve\r\n     * @return donors Array of donor addresses\r\n     * @return amounts Array of donation amounts\r\n     * @return timestamps Array of donation timestamps\r\n     * @return messages Array of donation messages\r\n     */\r\n    function getDonationBatch(uint256 startIndex, uint256 count) external view returns (\r\n        address[] memory donors,\r\n        uint256[] memory amounts,\r\n        uint256[] memory timestamps,\r\n        string[] memory messages\r\n    ) {\r\n        // Ensure we don't go out of bounds\r\n        uint256 endIndex = startIndex + count;\r\n        if (endIndex > donations.length) {\r\n            endIndex = donations.length;\r\n        }\r\n        \r\n        // Calculate actual count\r\n        uint256 actualCount = endIndex - startIndex;\r\n        \r\n        // Initialize return arrays\r\n        donors = new address[](actualCount);\r\n        amounts = new uint256[](actualCount);\r\n        timestamps = new uint256[](actualCount);\r\n        messages = new string[](actualCount);\r\n        \r\n        // Fill arrays with donation data\r\n        for (uint256 i = 0; i < actualCount; i++) {\r\n            Donation storage donation = donations[startIndex + i];\r\n            donors[i] = donation.donor;\r\n            amounts[i] = donation.amount;\r\n            timestamps[i] = donation.timestamp;\r\n            messages[i] = donation.message;\r\n        }\r\n        \r\n        return (donors, amounts, timestamps, messages);\r\n    }\r\n    \r\n    /**\r\n     * @dev Get transactions within a specific range\r\n     * @param startIndex The starting index\r\n     * @param count The number of transactions to retrieve\r\n     * @return senders Array of sender addresses\r\n     * @return recipients Array of recipient addresses\r\n     * @return amounts Array of transaction amounts\r\n     * @return timestamps Array of transaction timestamps\r\n     * @return descriptions Array of transaction descriptions\r\n     */\r\n    function getTransactionBatch(uint256 startIndex, uint256 count) external view returns (\r\n        address[] memory senders,\r\n        address[] memory recipients,\r\n        uint256[] memory amounts,\r\n        uint256[] memory timestamps,\r\n        string[] memory descriptions\r\n    ) {\r\n        // Ensure we don't go out of bounds\r\n        uint256 endIndex = startIndex + count;\r\n        if (endIndex > transactions.length) {\r\n            endIndex = transactions.length;\r\n        }\r\n        \r\n        // Calculate actual count\r\n        uint256 actualCount = endIndex - startIndex;\r\n        \r\n        // Initialize return arrays\r\n        senders = new address[](actualCount);\r\n        recipients = new address[](actualCount);\r\n        amounts = new uint256[](actualCount);\r\n        timestamps = new uint256[](actualCount);\r\n        descriptions = new string[](actualCount);\r\n        \r\n        // Fill arrays with transaction data\r\n        for (uint256 i = 0; i < actualCount; i++) {\r\n            Transaction storage txn = transactions[startIndex + i];\r\n            senders[i] = txn.sender;\r\n            recipients[i] = txn.recipient;\r\n            amounts[i] = txn.amount;\r\n            timestamps[i] = txn.timestamp;\r\n            descriptions[i] = txn.description;\r\n        }\r\n        \r\n        return (senders, recipients, amounts, timestamps, descriptions);\r\n    }\r\n    \r\n    /**\r\n     * @dev Donate to a specific charity\r\n     * @param charityId The ID of the charity (can be used in your frontend)\r\n     * @param message A message from the donor\r\n     */\r\n    function donateToCharity(uint256 charityId, string memory message) external payable {\r\n        require(msg.value > 0, \"Donation amount must be greater than 0\");\r\n        \r\n        // Record the donation with charity ID in the message\r\n        // This is a simple way to associate donations with charities\r\n        // In a more complex system, you might want to store charity IDs separately\r\n        string memory fullMessage = string(abi.encodePacked(\r\n            \"Charity ID: \", \r\n            _uintToString(charityId), \r\n            \" | Message: \", \r\n            message\r\n        ));\r\n        \r\n        // Record the donation\r\n        donations.push(Donation({\r\n            donor: msg.sender,\r\n            amount: msg.value,\r\n            timestamp: block.timestamp,\r\n            message: fullMessage\r\n        }));\r\n        \r\n        // Update donor's total\r\n        donorTotalAmount[msg.sender] += msg.value;\r\n        \r\n        // Emit event\r\n        emit DonationReceived(msg.sender, msg.value, fullMessage);\r\n    }\r\n    \r\n    /**\r\n     * @dev Helper function to convert uint to string\r\n     * @param v The uint value to convert\r\n     * @return The string representation\r\n     */\r\n    function _uintToString(uint256 v) internal pure returns (string memory) {\r\n        if (v == 0) {\r\n            return \"0\";\r\n        }\r\n        \r\n        uint256 maxlength = 100;\r\n        bytes memory reversed = new bytes(maxlength);\r\n        uint256 i = 0;\r\n        while (v != 0) {\r\n            uint256 remainder = v % 10;\r\n            v = v / 10;\r\n            reversed[i++] = bytes1(uint8(48 + remainder));\r\n        }\r\n        \r\n        bytes memory s = new bytes(i);\r\n        for (uint256 j = 0; j < i; j++) {\r\n            s[j] = reversed[i - 1 - j];\r\n        }\r\n        \r\n        return string(s);\r\n    }\r\n}",
  "sourcePath": "C:\\xampp\\htdocs\\trustchain\\mycontract\\contracts\\Contract.sol",
  "compiler": {
    "name": "solc",
    "version": "0.8.21+commit.d9974bed.Emscripten.clang"
  },
  "schemaVersion": "3.4.16",
  "updatedAt": "2025-03-22T13:03:12.341Z",
  "devdoc": {
    "details": "A contract that allows users to make donations and transactions",
    "kind": "dev",
    "methods": {
      "constructor": {
        "details": "Constructor sets the owner to the deployer of the contract"
      },
      "donate(string)": {
        "details": "Make a donation with an optional message",
        "params": {
          "message": "A message from the donor"
        }
      },
      "donateToCharity(uint256,string)": {
        "details": "Donate to a specific charity",
        "params": {
          "charityId": "The ID of the charity (can be used in your frontend)",
          "message": "A message from the donor"
        }
      },
      "executeTransaction(address,string)": {
        "details": "Execute a transaction to send funds to a recipient",
        "params": {
          "description": "A description of the transaction",
          "recipient": "The address of the recipient"
        }
      },
      "getContractBalance()": {
        "details": "Get the contract balance",
        "returns": {
          "_0": "The balance of the contract"
        }
      },
      "getDonationBatch(uint256,uint256)": {
        "details": "Get donations within a specific range",
        "params": {
          "count": "The number of donations to retrieve",
          "startIndex": "The starting index"
        },
        "returns": {
          "amounts": "Array of donation amounts",
          "donors": "Array of donor addresses",
          "messages": "Array of donation messages",
          "timestamps": "Array of donation timestamps"
        }
      },
      "getDonationCount()": {
        "details": "Get the total number of donations",
        "returns": {
          "_0": "The number of donations"
        }
      },
      "getDonationDetails(uint256)": {
        "details": "Get donation details by index",
        "params": {
          "index": "The index of the donation"
        },
        "returns": {
          "amount": "The donation amount",
          "donor": "The address of the donor",
          "message": "The donation message",
          "timestamp": "The timestamp of the donation"
        }
      },
      "getDonationsByDonor(address)": {
        "details": "Get all donations by a specific donor",
        "params": {
          "donor": "The address of the donor"
        },
        "returns": {
          "_0": "indices The indices of the donations made by the donor"
        }
      },
      "getTransactionBatch(uint256,uint256)": {
        "details": "Get transactions within a specific range",
        "params": {
          "count": "The number of transactions to retrieve",
          "startIndex": "The starting index"
        },
        "returns": {
          "amounts": "Array of transaction amounts",
          "descriptions": "Array of transaction descriptions",
          "recipients": "Array of recipient addresses",
          "senders": "Array of sender addresses",
          "timestamps": "Array of transaction timestamps"
        }
      },
      "getTransactionCount()": {
        "details": "Get the total number of transactions",
        "returns": {
          "_0": "The number of transactions"
        }
      },
      "getTransactionDetails(uint256)": {
        "details": "Get transaction details by index",
        "params": {
          "index": "The index of the transaction"
        },
        "returns": {
          "amount": "The transaction amount",
          "description": "The transaction description",
          "recipient": "The address of the recipient",
          "sender": "The address of the sender",
          "timestamp": "The timestamp of the transaction"
        }
      },
      "getTransactionsByRecipient(address)": {
        "details": "Get all transactions to a specific recipient",
        "params": {
          "recipient": "The address of the recipient"
        },
        "returns": {
          "_0": "indices The indices of the transactions to the recipient"
        }
      },
      "getTransactionsBySender(address)": {
        "details": "Get all transactions by a specific sender",
        "params": {
          "sender": "The address of the sender"
        },
        "returns": {
          "_0": "indices The indices of the transactions made by the sender"
        }
      },
      "transferOwnership(address)": {
        "details": "Change the owner of the contract",
        "params": {
          "newOwner": "The address of the new owner"
        }
      },
      "withdraw(address,uint256)": {
        "details": "Withdraw funds from the contract (only owner)",
        "params": {
          "amount": "The amount to withdraw",
          "to": "The address to send the funds to"
        }
      }
    },
    "title": "Donation Contract",
    "version": 1
  },
  "userdoc": {
    "kind": "user",
    "methods": {},
    "version": 1
  }
}