{
  "contractName": "SimpleContract",
  "abi": [
    {
      "inputs": [],
      "stateMutability": "nonpayable",
      "type": "constructor"
    },
    {
      "inputs": [],
      "name": "owner",
      "outputs": [
        {
          "internalType": "address",
          "name": "",
          "type": "address"
        }
      ],
      "stateMutability": "view",
      "type": "function"
    },
    {
      "inputs": [],
      "name": "donate",
      "outputs": [],
      "stateMutability": "payable",
      "type": "function"
    },
    {
      "inputs": [],
      "name": "getOwner",
      "outputs": [
        {
          "internalType": "address",
          "name": "",
          "type": "address"
        }
      ],
      "stateMutability": "view",
      "type": "function"
    }
  ],
  "bytecode": "0x608060405234801561000f575f80fd5b505f80546001600160a01b0319163317905560ba8061002d5f395ff3fe608060405260043610602f575f3560e01c8063893d20e81460335780638da5cb5b146066578063ed88c68e146082575b5f80fd5b348015603d575f80fd5b505f546001600160a01b03165b6040516001600160a01b03909116815260200160405180910390f35b3480156070575f80fd5b505f54604a906001600160a01b031681565b00fea2646970667358221220a9952b10046ca1b5e684e0f78fa8cf476cfd3b5ac35bb5ecebc2d9cd1a4c36d664736f6c63430008150033",
  "immutableReferences": {},
  "source": "// SPDX-License-Identifier: MIT\r\npragma solidity ^0.8.0;\r\n\r\ncontract SimpleContract {\r\n    address public owner;\r\n    \r\n    constructor() {\r\n        owner = msg.sender;\r\n    }\r\n    \r\n    function donate() external payable {\r\n        // Just accept the payment\r\n    }\r\n    \r\n    function getOwner() external view returns (address) {\r\n        return owner;\r\n    }\r\n} ",
  "sourcePath": "C:\\xampp\\htdocs\\trustchain\\mycontract\\contracts\\SimpleContract.sol",
  "compiler": {
    "name": "solc",
    "version": "0.8.21+commit.d9974bed.Emscripten.clang"
  },
  "schemaVersion": "3.4.16",
  "updatedAt": "2025-03-22T13:03:12.351Z",
  "devdoc": {
    "kind": "dev",
    "methods": {},
    "version": 1
  },
  "userdoc": {
    "kind": "user",
    "methods": {},
    "version": 1
  }
}